{
  "contractName": "TrueDeckBlackJack",
  "abi": [
    {
      "constant": false,
      "inputs": [],
      "name": "destroy",
      "outputs": [],
      "payable": false,
      "stateMutability": "nonpayable",
      "type": "function"
    },
    {
      "constant": true,
      "inputs": [],
      "name": "owner",
      "outputs": [
        {
          "name": "",
          "type": "address"
        }
      ],
      "payable": false,
      "stateMutability": "view",
      "type": "function"
    },
    {
      "constant": false,
      "inputs": [
        {
          "name": "newOwner",
          "type": "address"
        }
      ],
      "name": "transferOwnership",
      "outputs": [],
      "payable": false,
      "stateMutability": "nonpayable",
      "type": "function"
    },
    {
      "constant": false,
      "inputs": [
        {
          "name": "_recipient",
          "type": "address"
        }
      ],
      "name": "destroyAndSend",
      "outputs": [],
      "payable": false,
      "stateMutability": "nonpayable",
      "type": "function"
    },
    {
      "inputs": [],
      "payable": false,
      "stateMutability": "nonpayable",
      "type": "constructor"
    },
    {
      "anonymous": false,
      "inputs": [
        {
          "indexed": false,
          "name": "player",
          "type": "address"
        }
      ],
      "name": "GameCreated",
      "type": "event"
    },
    {
      "anonymous": false,
      "inputs": [
        {
          "indexed": false,
          "name": "player",
          "type": "address"
        },
        {
          "indexed": false,
          "name": "round",
          "type": "uint64"
        },
        {
          "indexed": false,
          "name": "bet",
          "type": "uint256"
        }
      ],
      "name": "NewRound",
      "type": "event"
    },
    {
      "anonymous": false,
      "inputs": [
        {
          "indexed": false,
          "name": "player",
          "type": "address"
        },
        {
          "indexed": false,
          "name": "round",
          "type": "uint64"
        },
        {
          "indexed": false,
          "name": "newStage",
          "type": "uint8"
        }
      ],
      "name": "StageChanged",
      "type": "event"
    },
    {
      "anonymous": false,
      "inputs": [
        {
          "indexed": false,
          "name": "player",
          "type": "address"
        },
        {
          "indexed": false,
          "name": "blockNumber",
          "type": "uint256"
        },
        {
          "indexed": false,
          "name": "action",
          "type": "uint8"
        }
      ],
      "name": "BlockElected",
      "type": "event"
    },
    {
      "anonymous": false,
      "inputs": [
        {
          "indexed": false,
          "name": "player",
          "type": "address"
        },
        {
          "indexed": false,
          "name": "round",
          "type": "uint64"
        },
        {
          "indexed": false,
          "name": "playerScore",
          "type": "uint8"
        },
        {
          "indexed": false,
          "name": "dealerScore",
          "type": "uint8"
        },
        {
          "indexed": false,
          "name": "payout",
          "type": "uint256"
        },
        {
          "indexed": false,
          "name": "credits",
          "type": "uint256"
        }
      ],
      "name": "Result",
      "type": "event"
    },
    {
      "anonymous": false,
      "inputs": [
        {
          "indexed": false,
          "name": "player",
          "type": "address"
        },
        {
          "indexed": false,
          "name": "credits",
          "type": "uint256"
        }
      ],
      "name": "Recharge",
      "type": "event"
    },
    {
      "anonymous": false,
      "inputs": [
        {
          "indexed": false,
          "name": "player",
          "type": "address"
        },
        {
          "indexed": false,
          "name": "code",
          "type": "string"
        },
        {
          "indexed": false,
          "name": "message",
          "type": "string"
        },
        {
          "indexed": false,
          "name": "number",
          "type": "uint256"
        }
      ],
      "name": "Info1",
      "type": "event"
    },
    {
      "anonymous": false,
      "inputs": [
        {
          "indexed": false,
          "name": "player",
          "type": "address"
        },
        {
          "indexed": false,
          "name": "code",
          "type": "string"
        },
        {
          "indexed": false,
          "name": "message",
          "type": "string"
        },
        {
          "indexed": false,
          "name": "number",
          "type": "bytes32"
        }
      ],
      "name": "Info2",
      "type": "event"
    },
    {
      "anonymous": false,
      "inputs": [
        {
          "indexed": false,
          "name": "player",
          "type": "address"
        },
        {
          "indexed": false,
          "name": "code",
          "type": "string"
        },
        {
          "indexed": false,
          "name": "message",
          "type": "string"
        },
        {
          "indexed": false,
          "name": "number",
          "type": "uint256"
        }
      ],
      "name": "Error",
      "type": "event"
    },
    {
      "anonymous": false,
      "inputs": [
        {
          "indexed": true,
          "name": "previousOwner",
          "type": "address"
        }
      ],
      "name": "OwnershipRenounced",
      "type": "event"
    },
    {
      "anonymous": false,
      "inputs": [
        {
          "indexed": true,
          "name": "previousOwner",
          "type": "address"
        },
        {
          "indexed": true,
          "name": "newOwner",
          "type": "address"
        }
      ],
      "name": "OwnershipTransferred",
      "type": "event"
    },
    {
      "constant": true,
      "inputs": [],
      "name": "getRoundBlockNumber",
      "outputs": [
        {
          "name": "startBlock",
          "type": "uint256"
        }
      ],
      "payable": false,
      "stateMutability": "view",
      "type": "function"
    },
    {
      "constant": true,
      "inputs": [],
      "name": "getCredits",
      "outputs": [
        {
          "name": "",
          "type": "uint256"
        }
      ],
      "payable": false,
      "stateMutability": "view",
      "type": "function"
    },
    {
      "constant": false,
      "inputs": [],
      "name": "initGame",
      "outputs": [],
      "payable": false,
      "stateMutability": "nonpayable",
      "type": "function"
    },
    {
      "constant": false,
      "inputs": [
        {
          "name": "_seedhash",
          "type": "bytes32"
        },
        {
          "name": "bet",
          "type": "uint256"
        }
      ],
      "name": "newRound",
      "outputs": [],
      "payable": false,
      "stateMutability": "nonpayable",
      "type": "function"
    },
    {
      "constant": false,
      "inputs": [],
      "name": "hit",
      "outputs": [],
      "payable": false,
      "stateMutability": "nonpayable",
      "type": "function"
    },
    {
      "constant": false,
      "inputs": [],
      "name": "stand",
      "outputs": [],
      "payable": false,
      "stateMutability": "nonpayable",
      "type": "function"
    },
    {
      "constant": false,
      "inputs": [
        {
          "name": "seed",
          "type": "string"
        }
      ],
      "name": "claim",
      "outputs": [],
      "payable": false,
      "stateMutability": "nonpayable",
      "type": "function"
    },
    {
      "constant": false,
      "inputs": [],
      "name": "recharge",
      "outputs": [],
      "payable": false,
      "stateMutability": "nonpayable",
      "type": "function"
    }
  ],
  "bytecode": "0x610220604052600b6080908152600260a052600360c052600460e052600561010052600661012052600761014052600861016052600961018052600a6101a08190526101c08190526101e0819052610200526200006190600190600d62000091565b503480156200006f57600080fd5b5060008054600160a060020a03191633600160a060020a03161790556200014f565b600183019183908215620001195791602002820160005b83821115620000e857835183826101000a81548160ff021916908360ff1602179055509260200192600101602081600001049283019260010302620000a8565b8015620001175782816101000a81549060ff0219169055600101602081600001049283019260010302620000e8565b505b50620001279291506200012b565b5090565b6200014c91905b808211156200012757805460ff1916815560010162000132565b90565b611244806200015f6000396000f3006080604052600436106100b95763ffffffff7c01000000000000000000000000000000000000000000000000000000006000350416632ae3594a81146100be57806332eb2564146100d55780634cddae28146100ea578063525ea79b146100ff578063823a71af1461012657806383197ef01461013b5780638da5cb5b14610150578063b040157f14610181578063c2897b101461019c578063f2fde38b146101b1578063f3fe12c9146101d2578063f5074f411461022b575b600080fd5b3480156100ca57600080fd5b506100d361024c565b005b3480156100e157600080fd5b506100d36102f8565b3480156100f657600080fd5b506100d3610546565b34801561010b57600080fd5b50610114610649565b60408051918252519081900360200190f35b34801561013257600080fd5b50610114610669565b34801561014757600080fd5b506100d3610688565b34801561015c57600080fd5b506101656106b1565b60408051600160a060020a039092168252519081900360200190f35b34801561018d57600080fd5b506100d36004356024356106c0565b3480156101a857600080fd5b506100d3610842565b3480156101bd57600080fd5b506100d3600160a060020a03600435166108f8565b3480156101de57600080fd5b506040805160206004803580820135601f81018490048402850184019095528484526100d39436949293602493928401919081908401838280828437509497506109909650505050505050565b34801561023757600080fd5b506100d3600160a060020a0360043516610e49565b600280600160a060020a0333166000908152600260208190526040909120015460ff16600381111561027a57fe5b146102d1576040805160e560020a62461bcd02815260206004820152602760248201526000805160206111d983398151915260448201526000805160206111f9833981519152606482015290519081900360840190fd5b600160a060020a03331660009081526002602081905260409091206102f591610e70565b50565b33600160a060020a0316600090815260026020819052604082200154819060ff16600381111561032457fe5b1461037b576040805160e560020a62461bcd02815260206004820152602760248201526000805160206111d983398151915260448201526000805160206111f9833981519152606482015290519081900360840190fd5b6040805161012081018252600080825260016020830152909182019081526020016103e8815260200160008152602001600080191681526020016000815260200160006040519080825280602002602001820160405280156103e7578160200160208202803883390190505b5081526020016000604051908082528060200260200182016040528015610418578160200160208202803883390190505b50905233600160a060020a03166000908152600260208181526040928390208451815467ffffffffffffffff191667ffffffffffffffff909116178155908401516001808301919091559284015191810180549193909160ff19169083600381111561048057fe5b0217905550606082015160038201556080820151600482015560a0820151600582015560c0820151600682015560e082015180516104c8916007840191602090910190611093565b5061010082015180516104e59160088401916020909101906110de565b505060408051600160a060020a033316815290517f4f0d1d413a983b9df8ab6ab954635b186a1e9a09ee6dc1b43263ddbf4841226792509081900360200190a1600160a060020a03331660009081526002602052604090206102f590610f08565b60008080600160a060020a0333166000908152600260208190526040909120015460ff16600381111561057557fe5b14156105cd576040805160e560020a62461bcd02815260206004820152602760248201526000805160206111d983398151915260448201526000805160206111f9833981519152606482015290519081900360840190fd5b600160a060020a03331660009081526002602052604090206003810154909250156105f757600080fd5b6103e86003830181905560408051600160a060020a0333168152602081019290925280517f78d9de6f3ad1cae9e0cbcbaa5267fd90f6a6728831eec42b7c147b398b2269249281900390910190a15050565b600160a060020a0333166000908152600260205260409020600101545b90565b600160a060020a03331660009081526002602052604090206003015490565b60005433600160a060020a039081169116146106a357600080fd5b600054600160a060020a0316ff5b600054600160a060020a031681565b60008080600160a060020a0333166000908152600260208190526040909120015460ff1660038111156106ef57fe5b1415610747576040805160e560020a62461bcd02815260206004820152602760248201526000805160206111d983398151915260448201526000805160206111f9833981519152606482015290519081900360840190fd5b600160a060020a033316600090815260026020526040902060058101859055600481018490556003810154909250610785908463ffffffff610fc616565b6003830155815467ffffffffffffffff198116600167ffffffffffffffff9283168101909216178355438184015560028301805460ff191682800217905550600782015460068301558154600483015460408051600160a060020a033316815267ffffffffffffffff909316602084015282810191909152517f700207087ac723dea31633968cd9ebbad083f6e054748186ec7ae8e6846bac8d9181900360600190a161083182610f08565b61083c826001610e70565b50505050565b33600160a060020a031660009081526002602081905260408220810154819060ff16600381111561086f57fe5b146108c6576040805160e560020a62461bcd02815260206004820152602760248201526000805160206111d983398151915260448201526000805160206111f9833981519152606482015290519081900360840190fd5b600160a060020a033316600090815260026020526040902091506108e982610f08565b6108f4826003610e70565b5050565b60005433600160a060020a0390811691161461091357600080fd5b600160a060020a038116151561092857600080fd5b60008054604051600160a060020a03808516939216917f8be0079c531659141344cd1fd0a4f28419497f9722a3daafe3b4186f6b6457e091a36000805473ffffffffffffffffffffffffffffffffffffffff1916600160a060020a0392909216919091179055565b600061099a611180565b6109a2611180565b6000806000806000806002600033600160a060020a0316600160a060020a031681526020019081526020016000209850896040518082805190602001908083835b60208310610a025780518252601f1990920191602091820191016109e3565b5181516020939093036101000a6000190180199091169216919091179052604051920182900390912060058d015414159250610db69150505760408051606081810183526000808352602080840182905283850182905284519283018552818352820181905292810183905260068c0154919a50985090965094505b6007890154851015610c2357898960070186815481101515610a9c57fe5b9060005260206000200154406040516020018083805190602001908083835b60208310610ada5780518252601f199092019160209182019101610abb565b51815160209384036101000a600019018019909216911617905292019384525060408051808503815293820190819052835193945092839250908401908083835b60208310610b3a5780518252601f199092019160209182019101610b1b565b5181516020939093036101000a6000190180199091169216919091179052604051920182900390912060088d018054919a50935088925082109050610b7b57fe5b60009182526020918290209181049091015460ff601f9092166101000a90041693506001841415610bec57610bb788603460ff89165b06610fd8565b600490950494610bcc87603460ff8916610bb1565b600490950494610be188603460ff8916610bb1565b600490950494610c18565b8360ff1660021415610c0757610be188603460ff8916610bb1565b8360ff1660031415610c1857610c23565b600190940193610a7e565b610c2c88611042565b925060158360ff161115610c3f57610e3d565b60009150610c5287603460ff8916610bb1565b600490950494610c6187611042565b91505b60118260ff161015610c9557610c7f87603460ff8916610bb1565b600490950494610c8e87611042565b9150610c64565b506000601560ff8416148015610cb25750876020015160ff166002145b8015610cd557508160ff166015148015610cd35750866020015160ff166002145b155b15610ce857506004880154600302610d27565b8160ff168360ff161180610cff575060158260ff16115b15610d1257506004880154600202610d27565b8160ff168360ff161415610d27575060048801545b6003890154610d3c908263ffffffff61108016565b60038a01819055895460408051600160a060020a033316815267ffffffffffffffff909216602083015260ff80871683830152851660608301526080820184905260a082019290925290517f5c9a95a907750534a711a77558a227d68e73e7d0317e551cd131e8d8ac38f6f79181900360c00190a1610e3d565b60408051600160a060020a0333168152600060608201819052608060208301819052600a908301527f57524f4e475f534545440000000000000000000000000000000000000000000060a083015260c082840181905282015290517fcf3f424d5dedde4645420e9f9c37b5245824b54617d19c80c6e9e29f2f0981cf918190036101000190a15b50505050505050505050565b60005433600160a060020a03908116911614610e6457600080fd5b80600160a060020a0316ff5b6007820180546001818101835560009283526020808420439301839055600886018054928301815584529283902083820401805460ff808716601f9094166101000a84810291021990911617905560408051600160a060020a03331681529384019290925282820152517fda371e5e09048a009f52eb6cc5044964109687310172690a7c42a122d88016a29181900360600190a15050565b600281015460ff166003811115610f1b57fe5b60010160ff166003811115610f2c57fe5b60028201805460ff19166001836003811115610f4457fe5b0217905550805460028201546040805133600160a060020a038116825267ffffffffffffffff909416602082018190527f65f2e0a7b383eef1262ab53dd0a5f174461891569d141616f9ca6373219893589493909260ff90911691908101826003811115610fae57fe5b60ff168152602001935050505060405180910390a150565b600082821115610fd257fe5b50900390565b60208201805160ff60019182018116909252600091600d9084160660ff16600d8110151561100257fe5b6020810491909101548451601f9092166101000a900460ff9081169182011684529050600b81141561103d5760408301805160010160ff1690525b505050565b80516040820151600091905b60008160ff16118015611064575060158260ff16115b1561107957600919909101906000190161104e565b5092915050565b8181018281101561108d57fe5b92915050565b8280548282559060005260206000209081019282156110ce579160200282015b828111156110ce5782518255916020019190600101906110b3565b506110da9291506111a0565b5090565b82805482825590600052602060002090601f016020900481019282156111745791602002820160005b8382111561114557835183826101000a81548160ff021916908360ff1602179055509260200192600101602081600001049283019260010302611107565b80156111725782816101000a81549060ff0219169055600101602081600001049283019260010302611145565b505b506110da9291506111ba565b604080516060810182526000808252602082018190529181019190915290565b61066691905b808211156110da57600081556001016111a6565b61066691905b808211156110da57805460ff191681556001016111c0560046756e6374696f6e2063616e6e6f742062652063616c6c656420617420746869732074696d652e00000000000000000000000000000000000000000000000000a165627a7a72305820ead584e31b5a9e626ad9e6f9e960b4b433c86da7876a4d455c413190d0fc7ef60029",
  "source": "pragma solidity 0.4.23;\n\n/**\n * @title SafeMath\n * @dev Math operations with safety checks that throw on error\n */\nlibrary SafeMath {\n\n  /**\n  * @dev Multiplies two numbers, throws on overflow.\n  */\n    function mul(uint256 a, uint256 b) internal pure returns (uint256 c) {\n        if (a == 0) {\n            return 0;\n        }\n        c = a * b;\n        assert(c / a == b);\n        return c;\n    }\n\n    /**\n    * @dev Integer division of two numbers, truncating the quotient.\n    */\n    function div(uint256 a, uint256 b) internal pure returns (uint256) {\n        // assert(b > 0); // Solidity automatically throws when dividing by 0\n        // uint256 c = a / b;\n        // assert(a == b * c + a % b); // There is no case in which this doesn't hold\n        return a / b;\n    }\n\n    /**\n    * @dev Subtracts two numbers, throws on overflow (i.e. if subtrahend is greater than minuend).\n    */\n    function sub(uint256 a, uint256 b) internal pure returns (uint256) {\n        assert(b <= a);\n        return a - b;\n    }\n\n    /**\n    * @dev Adds two numbers, throws on overflow.\n    */\n    function add(uint256 a, uint256 b) internal pure returns (uint256 c) {\n        c = a + b;\n        assert(c >= a);\n        return c;\n    }\n}\n\n/**\n * @title Ownable\n * @dev The Ownable contract has an owner address, and provides basic authorization control\n * functions, this simplifies the implementation of \"user permissions\".\n */\ncontract Ownable {\n    address public owner;\n\n    event OwnershipRenounced(\n        address indexed previousOwner\n    );\n    event OwnershipTransferred(\n        address indexed previousOwner,\n        address indexed newOwner\n    );\n\n    /**\n     * @dev The Ownable constructor sets the original `owner` of the contract to the sender\n     * account.\n     */\n    constructor() public {\n        owner = msg.sender;\n    }\n\n    /**\n     * @dev Throws if called by any account other than the owner.\n     */\n    modifier onlyOwner() {\n        require(msg.sender == owner);\n        _;\n    }\n\n    /**\n     * @dev Allows the current owner to transfer control of the contract to a newOwner.\n     * @param newOwner The address to transfer ownership to.\n     */\n    function transferOwnership(address newOwner) public onlyOwner {\n        require(newOwner != address(0));\n        emit OwnershipTransferred(owner, newOwner);\n        owner = newOwner;\n    }\n}\n\n/**\n * @title Destructible\n * @dev Base contract that can be destroyed by owner. All funds in contract will be sent to the owner.\n */\ncontract Destructible is Ownable {\n\n    constructor() public payable { }\n\n    /**\n     * @dev Transfers the current balance to the owner and terminates the contract.\n     */\n    function destroy() onlyOwner public {\n        selfdestruct(owner);\n    }\n\n    function destroyAndSend(address _recipient) onlyOwner public {\n        selfdestruct(_recipient);\n    }\n}\n\ncontract TrueDeckBlackJack is Destructible {\n    using SafeMath for uint256;\n\n    event GameCreated(address player);\n    event NewRound(address player, uint64 round, uint256 bet);\n    event StageChanged(address player, uint64 round, Stage newStage);\n    event BlockElected(address player, uint256 blockNumber, uint8 action);\n    event Result(address player, uint64 round, uint8 playerScore, uint8 dealerScore, uint256 payout, uint256 credits);\n    event Recharge(address player, uint256 credits);\n\n    event Info1(address player, string code, string message, uint256 number);\n    event Info2(address player, string code, string message, bytes32 number);\n    event Error(address player, string code, string message, uint256 number);\n\n    enum Stage {\n        SitDown,\n    \tBet,\n    \tPlay,\n        Stand\n    }\n\n    struct Game {\n        uint64 round;\n        uint256 startBlock;\n        Stage stage;\n        uint256 credits;\n\n        uint256 bet;\n        bytes32 seedhash;\n        uint256 offset;\n        uint256[] blocks;\n        uint8[] actions;        // 1-Deal, 2-Hit, 3-Stand\n    }\n\n    struct Hand {\n        uint8 score;\n        uint8 length;\n        uint8 numberOfAces;\n    }\n\n    uint8[13] private cardPoints = [11, 2, 3, 4, 5, 6, 7, 8, 9, 10, 10, 10, 10];\n\n    mapping(address => Game) private games;\n\n    constructor() public {\n\n    }\n\n    function getRoundBlockNumber() public view returns (uint256 startBlock) {\n        return games[msg.sender].startBlock;\n    }\n\n    function getCredits() public view returns (uint256) {\n        return games[msg.sender].credits;\n    }\n\n    modifier atStage(Stage _stage) {\n        require(\n            games[msg.sender].stage == _stage,\n            \"Function cannot be called at this time.\"\n        );\n        _;\n    }\n\n    modifier notAtStage(Stage _stage) {\n        require(\n            games[msg.sender].stage != _stage,\n            \"Function cannot be called at this time.\"\n        );\n        _;\n    }\n\n    function nextStage(Game storage game) private {\n        game.stage = Stage(uint8(game.stage) + 1);\n        emit StageChanged(msg.sender, game.round, game.stage);\n    }\n\n    function initGame() public atStage(Stage.SitDown) {\n        games[msg.sender] = Game({\n                                round: 0,\n                                startBlock: 1,\n                                stage: Stage.SitDown,\n                                credits: 1000,\n                                bet: 0,\n                                seedhash: \"\",\n                                offset: 0,\n                                blocks: new uint256[](0),\n                                actions: new uint8[](0)\n                            });\n\n        emit GameCreated(msg.sender);\n        nextStage(games[msg.sender]);\n    }\n\n    function newRound(bytes32 _seedhash, uint256 bet) public notAtStage(Stage.SitDown) {\n        Game storage game = games[msg.sender];\n\n        game.seedhash = _seedhash;\n        game.bet = bet;\n        game.credits = game.credits.sub(bet);\n\n        game.round++;\n        game.startBlock = block.number;\n        game.stage = Stage.Bet;\n        game.offset = game.blocks.length;\n\n        emit NewRound(msg.sender, game.round, game.bet);\n        nextStage(game);\n        electBlock(game, 1);    // ACTION: DEAL\n    }\n\n    function hit() public atStage(Stage.Play) {\n        electBlock(games[msg.sender], 2);    // ACTION: HIT\n    }\n\n    function stand() public atStage(Stage.Play) {\n        Game storage game = games[msg.sender];\n        nextStage(game);\n        electBlock(game, 3);    // ACTION: STAND\n    }\n\n    function electBlock(Game storage game, uint8 action) private {\n        game.blocks.push(block.number);\n        game.actions.push(action);\n        emit BlockElected(msg.sender, block.number, action);\n    }\n\n    function claim(string seed) public {\n        Game storage game = games[msg.sender];\n\n        // emit Info2(msg.sender, \"SEEDHASH\", \"Expected\", keccak256(seed));\n        // emit Info2(msg.sender, \"SEEDHASH\", \"Comitted\", game.seedhash);\n\n        if (game.seedhash == keccak256(seed)) {\n            Hand memory playerHand = Hand(0, 0, 0);\n            Hand memory dealerHand = Hand(0, 0, 0);\n\n            // Replay game actions\n            uint256 cardSeed = 0;\n\n            for (uint256 i = game.offset; i < game.blocks.length; i++) {\n                cardSeed = uint256(keccak256(abi.encodePacked(seed, blockhash(game.blocks[i]))));\n                // emit Info1(msg.sender, \"CARD\", \"\", cardSeed);\n                uint8 action = game.actions[i];\n\n                if (action == 1) {\n                    // DEAL\n                    drawCard(playerHand, uint8((cardSeed & 255) % 52));\n                    cardSeed = cardSeed >> 2;\n                    drawCard(dealerHand, uint8((cardSeed & 255) % 52));\n                    cardSeed = cardSeed >> 2;\n                    drawCard(playerHand, uint8((cardSeed & 255) % 52));\n                    cardSeed = cardSeed >> 2;\n                } else if (action == 2) {\n                    // HIT\n                    drawCard(playerHand, uint8((cardSeed & 255) % 52));\n                    cardSeed = cardSeed >> 2;\n                } else if (action == 3) {\n                    break;\n                }\n            }\n\n            uint8 playerScore = getScore(playerHand);\n\n            // If player has lost\n            if (playerScore > 21) {\n                // emit Info1(msg.sender, \"RESULT\", \"Lost!\", playerScore);\n                return;\n            }\n\n            uint8 dealerScore = 0;\n            // If player score is 21 or less / action is STAND\n            // if (playerScore == 21 || action == 3) {     // No need to check, always true\n                // Draw cards for dealer\n                drawCard(dealerHand, uint8((cardSeed & 255) % 52));\n                cardSeed = cardSeed >> 2;\n\n                // Dealer must draw to 16 and stand on all 17's\n                dealerScore = getScore(dealerHand);\n                while (dealerScore < 17) {\n                    drawCard(dealerHand, uint8((cardSeed & 255) % 52));\n                    cardSeed = cardSeed >> 2;\n                    dealerScore = getScore(dealerHand);\n                }\n            // }\n\n            uint256 payout = 0;\n            if ((playerScore == 21 && playerHand.length == 2) && !(dealerScore == 21 && dealerHand.length == 2)) {\n                payout = game.bet * 3;\n            } else if (playerScore > dealerScore || dealerScore > 21) {\n                payout = game.bet * 2;\n            } else if (playerScore == dealerScore) {\n                payout = game.bet;\n            }\n\n            game.credits = game.credits.add(payout);\n\n            emit Result(msg.sender, game.round, playerScore, dealerScore, payout, game.credits);\n        } else {\n            emit Error(msg.sender, \"WRONG_SEED\", \"\", 0);\n        }\n    }\n\n    function recharge() public notAtStage(Stage.SitDown) {\n        Game storage game = games[msg.sender];\n        require(game.credits == 0);\n        game.credits = 1000;\n        emit Recharge(msg.sender, game.credits);\n    }\n\n    function drawCard(Hand hand, uint8 card) private view {\n        hand.length++;\n        uint8 value = cardPoints[card % 13];\n        hand.score += value;\n        if (value == 11) hand.numberOfAces++;\n    }\n\n    function getScore(Hand hand) private pure returns (uint8) {\n        uint8 score = hand.score;\n        uint8 numberOfAces = hand.numberOfAces;\n        while (numberOfAces > 0 && score > 21) {\n            score -= 10;\n            numberOfAces--;\n        }\n        return score;\n    }\n}\n",
  "sourcePath": "/home/kayeth/aksh/TrueDeck/Games/BlackJack/SmartContract/BlackJack_Final/contracts/TrueDeckBlackJack.sol",
  "compiler": {
    "name": "solc",
    "version": "0.4.23+commit.124ca40d.Emscripten.clang"
  },
  "schemaVersion": "2.0.0",
  "updatedAt": "2018-09-11T17:59:04.662Z"
}