{
  "contractName": "TrueDeckBlackJack",
  "abi": [
    {
      "constant": true,
      "inputs": [
        {
          "name": "",
          "type": "bytes32"
        }
      ],
      "name": "dealers",
      "outputs": [
        {
          "name": "bet",
          "type": "uint256"
        },
        {
          "name": "seed",
          "type": "uint256"
        },
        {
          "name": "score",
          "type": "uint8"
        }
      ],
      "payable": false,
      "stateMutability": "view",
      "type": "function"
    },
    {
      "constant": true,
      "inputs": [
        {
          "name": "",
          "type": "address"
        }
      ],
      "name": "games",
      "outputs": [
        {
          "name": "id",
          "type": "bytes32"
        },
        {
          "name": "blockNumber",
          "type": "uint256"
        },
        {
          "name": "round",
          "type": "uint64"
        },
        {
          "name": "stage",
          "type": "uint8"
        }
      ],
      "payable": false,
      "stateMutability": "view",
      "type": "function"
    },
    {
      "constant": true,
      "inputs": [],
      "name": "owner",
      "outputs": [
        {
          "name": "",
          "type": "address"
        }
      ],
      "payable": false,
      "stateMutability": "view",
      "type": "function"
    },
    {
      "constant": true,
      "inputs": [
        {
          "name": "",
          "type": "bytes32"
        }
      ],
      "name": "players",
      "outputs": [
        {
          "name": "bet",
          "type": "uint256"
        },
        {
          "name": "seed",
          "type": "uint256"
        },
        {
          "name": "score",
          "type": "uint8"
        }
      ],
      "payable": false,
      "stateMutability": "view",
      "type": "function"
    },
    {
      "constant": false,
      "inputs": [
        {
          "name": "newOwner",
          "type": "address"
        }
      ],
      "name": "transferOwnership",
      "outputs": [],
      "payable": false,
      "stateMutability": "nonpayable",
      "type": "function"
    },
    {
      "inputs": [],
      "payable": false,
      "stateMutability": "nonpayable",
      "type": "constructor"
    },
    {
      "payable": true,
      "stateMutability": "payable",
      "type": "fallback"
    },
    {
      "anonymous": false,
      "inputs": [
        {
          "indexed": false,
          "name": "gameId",
          "type": "bytes32"
        },
        {
          "indexed": false,
          "name": "round",
          "type": "uint64"
        },
        {
          "indexed": false,
          "name": "newStage",
          "type": "uint8"
        }
      ],
      "name": "StageChanged",
      "type": "event"
    },
    {
      "anonymous": false,
      "inputs": [
        {
          "indexed": false,
          "name": "gameId",
          "type": "bytes32"
        },
        {
          "indexed": false,
          "name": "round",
          "type": "uint64"
        },
        {
          "indexed": false,
          "name": "player",
          "type": "address"
        },
        {
          "indexed": false,
          "name": "bet",
          "type": "uint256"
        }
      ],
      "name": "NewRound",
      "type": "event"
    },
    {
      "anonymous": false,
      "inputs": [
        {
          "indexed": false,
          "name": "gameId",
          "type": "bytes32"
        },
        {
          "indexed": false,
          "name": "round",
          "type": "uint64"
        },
        {
          "indexed": false,
          "name": "card",
          "type": "uint8"
        },
        {
          "indexed": false,
          "name": "score",
          "type": "uint8"
        },
        {
          "indexed": false,
          "name": "isDealer",
          "type": "bool"
        }
      ],
      "name": "CardDrawn",
      "type": "event"
    },
    {
      "anonymous": false,
      "inputs": [
        {
          "indexed": false,
          "name": "gameId",
          "type": "bytes32"
        },
        {
          "indexed": false,
          "name": "round",
          "type": "uint64"
        },
        {
          "indexed": false,
          "name": "payout",
          "type": "uint256"
        },
        {
          "indexed": false,
          "name": "playerScore",
          "type": "uint8"
        },
        {
          "indexed": false,
          "name": "dealerScore",
          "type": "uint8"
        }
      ],
      "name": "Result",
      "type": "event"
    },
    {
      "anonymous": false,
      "inputs": [
        {
          "indexed": false,
          "name": "gameId",
          "type": "bytes32"
        },
        {
          "indexed": false,
          "name": "round",
          "type": "uint64"
        }
      ],
      "name": "ProcessEvents",
      "type": "event"
    },
    {
      "anonymous": false,
      "inputs": [
        {
          "indexed": true,
          "name": "previousOwner",
          "type": "address"
        }
      ],
      "name": "OwnershipRenounced",
      "type": "event"
    },
    {
      "anonymous": false,
      "inputs": [
        {
          "indexed": true,
          "name": "previousOwner",
          "type": "address"
        },
        {
          "indexed": true,
          "name": "newOwner",
          "type": "address"
        }
      ],
      "name": "OwnershipTransferred",
      "type": "event"
    },
    {
      "constant": true,
      "inputs": [],
      "name": "getRoundBlockNumber",
      "outputs": [
        {
          "name": "blockNumber",
          "type": "uint256"
        }
      ],
      "payable": false,
      "stateMutability": "view",
      "type": "function"
    },
    {
      "constant": true,
      "inputs": [],
      "name": "getGameState",
      "outputs": [
        {
          "name": "gameId",
          "type": "bytes32"
        },
        {
          "name": "blockNumber",
          "type": "uint256"
        },
        {
          "name": "round",
          "type": "uint64"
        },
        {
          "name": "stage",
          "type": "uint8"
        },
        {
          "name": "dealerScore",
          "type": "uint8"
        },
        {
          "name": "dealerHand",
          "type": "string"
        },
        {
          "name": "playerScore",
          "type": "uint8"
        },
        {
          "name": "playerHand",
          "type": "string"
        }
      ],
      "payable": false,
      "stateMutability": "view",
      "type": "function"
    },
    {
      "constant": false,
      "inputs": [
        {
          "name": "_seed",
          "type": "uint256"
        }
      ],
      "name": "initGame",
      "outputs": [],
      "payable": false,
      "stateMutability": "nonpayable",
      "type": "function"
    },
    {
      "constant": false,
      "inputs": [
        {
          "name": "_seed",
          "type": "uint256"
        }
      ],
      "name": "newRound",
      "outputs": [],
      "payable": true,
      "stateMutability": "payable",
      "type": "function"
    },
    {
      "constant": false,
      "inputs": [],
      "name": "addBet",
      "outputs": [],
      "payable": true,
      "stateMutability": "payable",
      "type": "function"
    },
    {
      "constant": false,
      "inputs": [
        {
          "name": "_seed",
          "type": "uint256"
        }
      ],
      "name": "hit",
      "outputs": [],
      "payable": false,
      "stateMutability": "nonpayable",
      "type": "function"
    },
    {
      "constant": false,
      "inputs": [
        {
          "name": "_seed",
          "type": "uint256"
        }
      ],
      "name": "stand",
      "outputs": [],
      "payable": false,
      "stateMutability": "nonpayable",
      "type": "function"
    }
  ],
  "bytecode": "0x60806040526101a060405190810160405280600b60ff168152602001600260ff168152602001600360ff168152602001600460ff168152602001600560ff168152602001600660ff168152602001600760ff168152602001600860ff168152602001600960ff168152602001600a60ff168152602001600a60ff168152602001600a60ff168152602001600a60ff16815250600190600d620000a392919062000425565b506101a0604051908101604052806040805190810160405280600181526020017f410000000000000000000000000000000000000000000000000000000000000081525081526020016040805190810160405280600181526020017f320000000000000000000000000000000000000000000000000000000000000081525081526020016040805190810160405280600181526020017f330000000000000000000000000000000000000000000000000000000000000081525081526020016040805190810160405280600181526020017f340000000000000000000000000000000000000000000000000000000000000081525081526020016040805190810160405280600181526020017f350000000000000000000000000000000000000000000000000000000000000081525081526020016040805190810160405280600181526020017f360000000000000000000000000000000000000000000000000000000000000081525081526020016040805190810160405280600181526020017f370000000000000000000000000000000000000000000000000000000000000081525081526020016040805190810160405280600181526020017f380000000000000000000000000000000000000000000000000000000000000081525081526020016040805190810160405280600181526020017f390000000000000000000000000000000000000000000000000000000000000081525081526020016040805190810160405280600281526020017f313000000000000000000000000000000000000000000000000000000000000081525081526020016040805190810160405280600181526020017f4a0000000000000000000000000000000000000000000000000000000000000081525081526020016040805190810160405280600181526020017f510000000000000000000000000000000000000000000000000000000000000081525081526020016040805190810160405280600181526020017f4b00000000000000000000000000000000000000000000000000000000000000815250815250600290600d620003c0929190620004c6565b50348015620003ce57600080fd5b50336000806101000a81548173ffffffffffffffffffffffffffffffffffffffff021916908373ffffffffffffffffffffffffffffffffffffffff160217905550426012600082825401925050819055506200067f565b82600d601f01602090048101928215620004b35791602002820160005b838211156200048257835183826101000a81548160ff021916908360ff160217905550926020019260010160208160000104928301926001030262000442565b8015620004b15782816101000a81549060ff021916905560010160208160000104928301926001030262000482565b505b509050620004c2919062000520565b5090565b82600d81019282156200050d579160200282015b828111156200050c578251829080519060200190620004fb92919062000553565b5091602001919060010190620004da565b5b5090506200051c9190620005da565b5090565b6200055091905b808211156200054c57600081816101000a81549060ff02191690555060010162000527565b5090565b90565b828054600181600116156101000203166002900490600052602060002090601f016020900481019282601f106200059657805160ff1916838001178555620005c7565b82800160010185558215620005c7579182015b82811115620005c6578251825591602001919060010190620005a9565b5b509050620005d691906200060b565b5090565b6200060891905b80821115620006045760008181620005fa919062000633565b50600101620005e1565b5090565b90565b6200063091905b808211156200062c57600081600090555060010162000612565b5090565b90565b50805460018160011615610100020316600290046000825580601f106200065b57506200067c565b601f0160209004906000526020600020908101906200067b91906200060b565b5b50565b612a7b806200068f6000396000f3006080604052600436106100ba576000357c0100000000000000000000000000000000000000000000000000000000900463ffffffff16806305df505714610117578063525ea79b1461017057806379131a191461019b5780638da5cb5b146102315780639424732e1461028857806396b76c23146102e1578063a35bd5911461030e578063b7d0628b1461032e578063c869ce641461048a578063d09a13be146104b7578063ebf6e91d146104c1578063f2fde38b146104ee575b6000809054906101000a900473ffffffffffffffffffffffffffffffffffffffff1673ffffffffffffffffffffffffffffffffffffffff163373ffffffffffffffffffffffffffffffffffffffff1614151561011557600080fd5b005b34801561012357600080fd5b506101466004803603810190808035600019169060200190929190505050610531565b604051808481526020018381526020018260ff1660ff168152602001935050505060405180910390f35b34801561017c57600080fd5b50610185610568565b6040518082815260200191505060405180910390f35b3480156101a757600080fd5b506101dc600480360381019080803573ffffffffffffffffffffffffffffffffffffffff1690602001909291905050506105b2565b6040518085600019166000191681526020018481526020018367ffffffffffffffff1667ffffffffffffffff16815260200182600281111561021a57fe5b60ff16815260200194505050505060405180910390f35b34801561023d57600080fd5b50610246610603565b604051808273ffffffffffffffffffffffffffffffffffffffff1673ffffffffffffffffffffffffffffffffffffffff16815260200191505060405180910390f35b34801561029457600080fd5b506102b76004803603810190808035600019169060200190929190505050610628565b604051808481526020018381526020018260ff1660ff168152602001935050505060405180910390f35b3480156102ed57600080fd5b5061030c6004803603810190808035906020019092919050505061065f565b005b61032c6004803603810190808035906020019092919050505061083b565b005b34801561033a57600080fd5b50610343610b9a565b6040518089600019166000191681526020018881526020018767ffffffffffffffff1667ffffffffffffffff16815260200186600281111561038157fe5b60ff1681526020018560ff1660ff168152602001806020018460ff1660ff16815260200180602001838103835286818151815260200191508051906020019080838360005b838110156103e15780820151818401526020810190506103c6565b50505050905090810190601f16801561040e5780820380516001836020036101000a031916815260200191505b50838103825284818151815260200191508051906020019080838360005b8381101561044757808201518184015260208101905061042c565b50505050905090810190601f1680156104745780820380516001836020036101000a031916815260200191505b509a505050505050505050505060405180910390f35b34801561049657600080fd5b506104b560048036038101908080359060200190929190505050610e03565b005b6104bf611343565b005b3480156104cd57600080fd5b506104ec600480360381019080803590602001909291905050506113cb565b005b3480156104fa57600080fd5b5061052f600480360381019080803573ffffffffffffffffffffffffffffffffffffffff169060200190929190505050611757565b005b60106020528060005260406000206000915090508060000154908060010154908060030160009054906101000a900460ff16905083565b6000600f60003373ffffffffffffffffffffffffffffffffffffffff1673ffffffffffffffffffffffffffffffffffffffff16815260200190815260200160002060010154905090565b600f6020528060005260406000206000915090508060000154908060010154908060020160009054906101000a900467ffffffffffffffff16908060020160089054906101000a900460ff16905084565b6000809054906101000a900473ffffffffffffffffffffffffffffffffffffffff1681565b60116020528060005260406000206000915090508060000154908060010154908060030160009054906101000a900460ff16905083565b6000600280600281111561066f57fe5b600f60003373ffffffffffffffffffffffffffffffffffffffff1673ffffffffffffffffffffffffffffffffffffffff16815260200190815260200160002060020160089054906101000a900460ff1660028111156106ca57fe5b141515610765576040517f08c379a00000000000000000000000000000000000000000000000000000000081526004018080602001828103825260278152602001807f46756e6374696f6e2063616e6e6f742062652063616c6c65642061742074686981526020017f732074696d652e0000000000000000000000000000000000000000000000000081525060400191505060405180910390fd5b600f60003373ffffffffffffffffffffffffffffffffffffffff1673ffffffffffffffffffffffffffffffffffffffff1681526020019081526020016000209150826012600082825401925050819055506107bf826118ac565b7f3375d66ca2b1444309059076fd367b52137263aa5aa670b63a68d0b704debccc82600001548360020160009054906101000a900467ffffffffffffffff166040518083600019166000191681526020018267ffffffffffffffff1667ffffffffffffffff1681526020019250505060405180910390a1505050565b6000600180600281111561084b57fe5b600f60003373ffffffffffffffffffffffffffffffffffffffff1673ffffffffffffffffffffffffffffffffffffffff16815260200190815260200160002060020160089054906101000a900460ff1660028111156108a657fe5b141515610941576040517f08c379a00000000000000000000000000000000000000000000000000000000081526004018080602001828103825260278152602001807f46756e6374696f6e2063616e6e6f742062652063616c6c65642061742074686981526020017f732074696d652e0000000000000000000000000000000000000000000000000081525060400191505060405180910390fd5b600f60003373ffffffffffffffffffffffffffffffffffffffff1673ffffffffffffffffffffffffffffffffffffffff16815260200190815260200160002091508260126000828254019250508190555082601060008460000154600019166000191681526020019081526020016000206001018190555082601160008460000154600019166000191681526020019081526020016000206001018190555034601160008460000154600019166000191681526020019081526020016000206000018190555081600201600081819054906101000a900467ffffffffffffffff168092919060010191906101000a81548167ffffffffffffffff021916908367ffffffffffffffff160217905550504382600101819055507fade5360bf5322ea0ad751ec6d174fec7a670f7ad59cc29a5eb9a5f737a3e46ff82600001548360020160009054906101000a900467ffffffffffffffff1633346040518085600019166000191681526020018467ffffffffffffffff1667ffffffffffffffff1681526020018373ffffffffffffffffffffffffffffffffffffffff1673ffffffffffffffffffffffffffffffffffffffff16815260200182815260200194505050505060405180910390a1610b1582611a11565b610b1e82611b01565b7f3375d66ca2b1444309059076fd367b52137263aa5aa670b63a68d0b704debccc82600001548360020160009054906101000a900467ffffffffffffffff166040518083600019166000191681526020018267ffffffffffffffff1667ffffffffffffffff1681526020019250505060405180910390a1505050565b60008060008060006060600060606000600f60003373ffffffffffffffffffffffffffffffffffffffff1673ffffffffffffffffffffffffffffffffffffffff168152602001908152602001600020905080600001549850806001015497508060020160009054906101000a900467ffffffffffffffff1696508060020160089054906101000a900460ff169550601060008a6000191660001916815260200190815260200160002060030160009054906101000a900460ff169450601160008a6000191660001916815260200190815260200160002060030160009054906101000a900460ff169250610d3c601060008b6000191660001916815260200190815260200160002060806040519081016040529081600082015481526020016001820154815260200160028201805480602002602001604051908101604052809291908181526020018280548015610d1157602002820191906000526020600020905b815481526020019060010190808311610cfd575b505050505081526020016003820160009054906101000a900460ff1660ff1660ff1681525050611e19565b9350610df6601160008b6000191660001916815260200190815260200160002060806040519081016040529081600082015481526020016001820154815260200160028201805480602002602001604051908101604052809291908181526020018280548015610dcb57602002820191906000526020600020905b815481526020019060010190808311610db7575b505050505081526020016003820160009054906101000a900460ff1660ff1660ff1681525050611e19565b9150509091929394959697565b600080806002811115610e1257fe5b600f60003373ffffffffffffffffffffffffffffffffffffffff1673ffffffffffffffffffffffffffffffffffffffff16815260200190815260200160002060020160089054906101000a900460ff166002811115610e6d57fe5b141515610f08576040517f08c379a00000000000000000000000000000000000000000000000000000000081526004018080602001828103825260278152602001807f46756e6374696f6e2063616e6e6f742062652063616c6c65642061742074686981526020017f732074696d652e0000000000000000000000000000000000000000000000000081525060400191505060405180910390fd5b4233600036604051808581526020018473ffffffffffffffffffffffffffffffffffffffff1673ffffffffffffffffffffffffffffffffffffffff166c010000000000000000000000000281526014018383808284378201915050945050505050604051809103902091508260126000828254019250508190555060806040519081016040528083600019168152602001438152602001600067ffffffffffffffff16815260200160006002811115610fbd57fe5b815250600f60003373ffffffffffffffffffffffffffffffffffffffff1673ffffffffffffffffffffffffffffffffffffffff168152602001908152602001600020600082015181600001906000191690556020820151816001015560408201518160020160006101000a81548167ffffffffffffffff021916908367ffffffffffffffff16021790555060608201518160020160086101000a81548160ff0219169083600281111561106c57fe5b0217905550905050608060405190810160405280600081526020016000815260200160006040519080825280602002602001820160405280156110be5781602001602082028038833980820191505090505b508152602001600060ff16815250601060008460001916600019168152602001908152602001600020600082015181600001556020820151816001015560408201518160020190805190602001906111179291906129a2565b5060608201518160030160006101000a81548160ff021916908360ff160217905550905050608060405190810160405280600081526020016000815260200160006040519080825280602002602001820160405280156111865781602001602082028038833980820191505090505b508152602001600060ff16815250601160008460001916600019168152602001908152602001600020600082015181600001556020820151816001015560408201518160020190805190602001906111df9291906129a2565b5060608201518160030160006101000a81548160ff021916908360ff16021790555090505061124b600f60003373ffffffffffffffffffffffffffffffffffffffff1673ffffffffffffffffffffffffffffffffffffffff168152602001908152602001600020611a11565b7f3375d66ca2b1444309059076fd367b52137263aa5aa670b63a68d0b704debccc600f60003373ffffffffffffffffffffffffffffffffffffffff1673ffffffffffffffffffffffffffffffffffffffff16815260200190815260200160002060000154600f60003373ffffffffffffffffffffffffffffffffffffffff1673ffffffffffffffffffffffffffffffffffffffff16815260200190815260200160002060020160009054906101000a900467ffffffffffffffff166040518083600019166000191681526020018267ffffffffffffffff1667ffffffffffffffff1681526020019250505060405180910390a1505050565b600080600f60003373ffffffffffffffffffffffffffffffffffffffff1673ffffffffffffffffffffffffffffffffffffffff16815260200190815260200160002091506011600083600001546000191660001916815260200190815260200160002090506113bf348260000154611fbf90919063ffffffff16565b81600001819055505050565b60008060028060028111156113dc57fe5b600f60003373ffffffffffffffffffffffffffffffffffffffff1673ffffffffffffffffffffffffffffffffffffffff16815260200190815260200160002060020160089054906101000a900460ff16600281111561143757fe5b1415156114d2576040517f08c379a00000000000000000000000000000000000000000000000000000000081526004018080602001828103825260278152602001807f46756e6374696f6e2063616e6e6f742062652063616c6c65642061742074686981526020017f732074696d652e0000000000000000000000000000000000000000000000000081525060400191505060405180910390fd5b600f60003373ffffffffffffffffffffffffffffffffffffffff1673ffffffffffffffffffffffffffffffffffffffff168152602001908152602001600020925060116000846000015460001916600019168152602001908152602001600020915060158260030160009054906101000a900460ff1660ff16111561155657600080fd5b836012600082825401925050819055506115f78360806040519081016040529081600082015460001916600019168152602001600182015481526020016002820160009054906101000a900467ffffffffffffffff1667ffffffffffffffff1667ffffffffffffffff1681526020016002820160089054906101000a900460ff1660028111156115e257fe5b60028111156115ed57fe5b8152505083611fdb565b50611696826080604051908101604052908160008201548152602001600182015481526020016002820180548060200260200160405190810160405280929190818152602001828054801561166b57602002820191906000526020600020905b815481526020019060010190808311611657575b505050505081526020016003820160009054906101000a900460ff1660ff1660ff16815250506122fe565b8260030160006101000a81548160ff021916908360ff16021790555060158260030160009054906101000a900460ff1660ff161015156116da576116d9836118ac565b5b7f3375d66ca2b1444309059076fd367b52137263aa5aa670b63a68d0b704debccc83600001548460020160009054906101000a900467ffffffffffffffff166040518083600019166000191681526020018267ffffffffffffffff1667ffffffffffffffff1681526020019250505060405180910390a150505050565b6000809054906101000a900473ffffffffffffffffffffffffffffffffffffffff1673ffffffffffffffffffffffffffffffffffffffff163373ffffffffffffffffffffffffffffffffffffffff161415156117b257600080fd5b600073ffffffffffffffffffffffffffffffffffffffff168173ffffffffffffffffffffffffffffffffffffffff16141515156117ee57600080fd5b8073ffffffffffffffffffffffffffffffffffffffff166000809054906101000a900473ffffffffffffffffffffffffffffffffffffffff1673ffffffffffffffffffffffffffffffffffffffff167f8be0079c531659141344cd1fd0a4f28419497f9722a3daafe3b4186f6b6457e060405160405180910390a3806000806101000a81548173ffffffffffffffffffffffffffffffffffffffff021916908373ffffffffffffffffffffffffffffffffffffffff16021790555050565b60006118b7826123dc565b905060008114151561190b573373ffffffffffffffffffffffffffffffffffffffff166108fc829081150290604051600060405180830381858888f19350505050158015611909573d6000803e3d6000fd5b505b7fdc6d5c5134ed119b365affa605d118c109393db807b823d33423df5b3e3f5eb582600001548360020160009054906101000a900467ffffffffffffffff16836011600087600001546000191660001916815260200190815260200160002060030160009054906101000a900460ff166010600088600001546000191660001916815260200190815260200160002060030160009054906101000a900460ff166040518086600019166000191681526020018567ffffffffffffffff1667ffffffffffffffff1681526020018481526020018360ff1660ff1681526020018260ff1660ff1681526020019550505050505060405180910390a1611a0d82612548565b5050565b60018160020160089054906101000a900460ff166002811115611a3057fe5b016002811115611a3c57fe5b8160020160086101000a81548160ff02191690836002811115611a5b57fe5b02179055507f056e0e4e19aa0f3290c7e53568e7020a77a43c4f297ed15f8460ec56ab9699b181600001548260020160009054906101000a900467ffffffffffffffff168360020160089054906101000a900460ff166040518084600019166000191681526020018367ffffffffffffffff1667ffffffffffffffff168152602001826002811115611ae957fe5b60ff168152602001935050505060405180910390a150565b6002806002811115611b0f57fe5b600f60003373ffffffffffffffffffffffffffffffffffffffff1673ffffffffffffffffffffffffffffffffffffffff16815260200190815260200160002060020160089054906101000a900460ff166002811115611b6a57fe5b141515611c05576040517f08c379a00000000000000000000000000000000000000000000000000000000081526004018080602001828103825260278152602001807f46756e6374696f6e2063616e6e6f742062652063616c6c65642061742074686981526020017f732074696d652e0000000000000000000000000000000000000000000000000081525060400191505060405180910390fd5b611cb48260806040519081016040529081600082015460001916600019168152602001600182015481526020016002820160009054906101000a900467ffffffffffffffff1667ffffffffffffffff1667ffffffffffffffff1681526020016002820160089054906101000a900460ff166002811115611c8157fe5b6002811115611c8c57fe5b8152505060116000856000015460001916600019168152602001908152602001600020611fdb565b50611d648260806040519081016040529081600082015460001916600019168152602001600182015481526020016002820160009054906101000a900467ffffffffffffffff1667ffffffffffffffff1667ffffffffffffffff1681526020016002820160089054906101000a900460ff166002811115611d3157fe5b6002811115611d3c57fe5b8152505060106000856000015460001916600019168152602001908152602001600020611fdb565b50611e148260806040519081016040529081600082015460001916600019168152602001600182015481526020016002820160009054906101000a900467ffffffffffffffff1667ffffffffffffffff1667ffffffffffffffff1681526020016002820160089054906101000a900460ff166002811115611de157fe5b6002811115611dec57fe5b8152505060116000856000015460001916600019168152602001908152602001600020611fdb565b505050565b60608060008060206040519081016040528060008152509250600091505b8460400151518260ff161015611fb457600d603486604001518460ff16815181101515611e6057fe5b90602001906020020151811515611e7357fe5b06811515611e7d57fe5b069050611f4b611f34600283600d81101515611e9557fe5b018054600181600116156101000203166002900480601f016020809104026020016040519081016040528092919081815260200182805460018160011615610100020316600290048015611f2a5780601f10611eff57610100808354040283529160200191611f2a565b820191906000526020600020905b815481529060010190602001808311611f0d57829003601f168201915b505050505061270b565b611f3d8561270b565b61273990919063ffffffff16565b9250611fa5611f8e6040805190810160405280600181526020017f2c0000000000000000000000000000000000000000000000000000000000000081525061270b565b611f978561270b565b61273990919063ffffffff16565b92508180600101925050611e37565b829350505050919050565b60008183019050828110151515611fd257fe5b80905092915050565b6000806000429150603460080261200d8367ffffffffffffffff16601254876001015402611fbf90919063ffffffff16565b81151561201657fe5b06905083600101548183604051808481526020018381526020018267ffffffffffffffff1667ffffffffffffffff167801000000000000000000000000000000000000000000000000028152600801935050505060405180910390206001900484600101819055506012548183604051808481526020018381526020018267ffffffffffffffff1667ffffffffffffffff167801000000000000000000000000000000000000000000000000028152600801935050505060405180910390206001900460128190555083600201819080600181540180825580915050906001820390600052602060002001600090919290919091505550600d60348281151561211b57fe5b0681151561212557fe5b06905060008114156121f0576121cf84608060405190810160405290816000820154815260200160018201548152602001600282018054806020026020016040519081016040528092919081815260200182805480156121a457602002820191906000526020600020905b815481526020019060010190808311612190575b505050505081526020016003820160009054906101000a900460ff1660ff1660ff16815250506122fe565b8460030160006101000a81548160ff021916908360ff160217905550612244565b600181600d811015156121ff57fe5b602091828204019190069054906101000a900460ff168460030160008282829054906101000a900460ff160192506101000a81548160ff021916908360ff1602179055505b7f44a84dd7a757498ab2301d699414a798ab0d4c7694a1202ccedcad74c5d9bd5e8560000151866040015160348481151561227b57fe5b068760030160009054906101000a900460ff1660008960000154146040518086600019166000191681526020018567ffffffffffffffff1667ffffffffffffffff1681526020018460ff1660ff1681526020018360ff1660ff168152602001821515151581526020019550505050505060405180910390a1809250505092915050565b60008060008060009250600091505b8460400151518260ff1610156123a457600d603486604001518460ff1681518110151561233657fe5b9060200190602002015181151561234957fe5b0681151561235357fe5b06905060018160ff16600d8110151561236857fe5b602091828204019190069054906101000a900460ff168401935060008160ff1614156123975782806001019350505b818060010192505061230d565b5b60008360ff161180156123bb575060158460ff16115b156123d457600a840393508280600190039350506123a5565b505050919050565b60008060008060116000866000015460001916600019168152602001908152602001600020925060106000866000015460001916600019168152602001908152602001600020915060158360030160009054906101000a900460ff1660ff16111561244a5760009350612540565b612453856127bb565b905060158360030160009054906101000a900460ff1660ff16148015612480575060028360020180549050145b801561248a575080155b1561249e576003836000015402935061253f565b8160030160009054906101000a900460ff1660ff168360030160009054906101000a900460ff1660ff1611806124e8575060158260030160009054906101000a900460ff1660ff16115b156124fc576002836000015402935061253e565b8160030160009054906101000a900460ff1660ff168360030160009054906101000a900460ff1660ff161415612538578260000154935061253d565b600093505b5b5b5b505050919050565b60018160020160086101000a81548160ff0219169083600281111561256957fe5b02179055507f056e0e4e19aa0f3290c7e53568e7020a77a43c4f297ed15f8460ec56ab9699b181600001548260020160009054906101000a900467ffffffffffffffff168360020160089054906101000a900460ff166040518084600019166000191681526020018367ffffffffffffffff1667ffffffffffffffff1681526020018260028111156125f757fe5b60ff168152602001935050505060405180910390a16000601160008360000154600019166000191681526020019081526020016000206000018190555060006011600083600001546000191660001916815260200190815260200160002060030160006101000a81548160ff021916908360ff16021790555060006010600083600001546000191660001916815260200190815260200160002060030160006101000a81548160ff021916908360ff1602179055506011600082600001546000191660001916815260200190815260200160002060020160006126da91906129ef565b60106000826000015460001916600019168152602001908152602001600020600201600061270891906129ef565b50565b612713612a10565b600060208301905060408051908101604052808451815260200182815250915050919050565b606080600083600001518560000151016040519080825280601f01601f19166020018201604052801561277b5781602001602082028038833980820191505090505b5091506020820190506127978186602001518760000151612957565b6127b08560000151820185602001518660000151612957565b819250505092915050565b6000806010600084600001546000191660001916815260200190815260200160002090506128708360806040519081016040529081600082015460001916600019168152602001600182015481526020016002820160009054906101000a900467ffffffffffffffff1667ffffffffffffffff1667ffffffffffffffff1681526020016002820160089054906101000a900460ff16600281111561285b57fe5b600281111561286657fe5b8152505082611fdb565b5060158160030160009054906101000a900460ff1660ff1614156128975760019150612951565b5b60118160030160009054906101000a900460ff1660ff16101561294c576129468360806040519081016040529081600082015460001916600019168152602001600182015481526020016002820160009054906101000a900467ffffffffffffffff1667ffffffffffffffff1667ffffffffffffffff1681526020016002820160089054906101000a900460ff16600281111561293157fe5b600281111561293c57fe5b8152505082611fdb565b50612898565b600091505b50919050565b60005b60208210151561297f578251845260208401935060208301925060208203915061295a565b6001826020036101000a0390508019835116818551168181178652505050505050565b8280548282559060005260206000209081019282156129de579160200282015b828111156129dd5782518255916020019190600101906129c2565b5b5090506129eb9190612a2a565b5090565b5080546000825590600052602060002090810190612a0d9190612a2a565b50565b604080519081016040528060008152602001600081525090565b612a4c91905b80821115612a48576000816000905550600101612a30565b5090565b905600a165627a7a7230582005eb6ec263e8f2f5f1ef74df2134daed28f96acb68dc04c14160938409610d5e0029",
  "source": "pragma solidity ^0.4.23;\n\nlibrary strings {\n    struct slice {\n        uint _len;\n        uint _ptr;\n    }\n\n    function memcpy(uint dest, uint src, uint len) private pure {\n        // Copy word-length chunks while possible\n        for(; len >= 32; len -= 32) {\n            assembly {\n                mstore(dest, mload(src))\n            }\n            dest += 32;\n            src += 32;\n        }\n\n        // Copy remaining bytes\n        uint mask = 256 ** (32 - len) - 1;\n        assembly {\n            let srcpart := and(mload(src), not(mask))\n            let destpart := and(mload(dest), mask)\n            mstore(dest, or(destpart, srcpart))\n        }\n    }\n\n    /*\n     * @dev Returns a slice containing the entire string.\n     * @param self The string to make a slice from.\n     * @return A newly allocated slice containing the entire string.\n     */\n    function toSlice(string self) internal pure returns (slice) {\n        uint ptr;\n        assembly {\n            ptr := add(self, 0x20)\n        }\n        return slice(bytes(self).length, ptr);\n    }\n\n    /*\n     * @dev Returns the length of a null-terminated bytes32 string.\n     * @param self The value to find the length of.\n     * @return The length of the string, from 0 to 32.\n     */\n    function len(bytes32 self) internal pure returns (uint) {\n        uint ret;\n        if (self == 0)\n            return 0;\n        if (self & 0xffffffffffffffffffffffffffffffff == 0) {\n            ret += 16;\n            self = bytes32(uint(self) / 0x100000000000000000000000000000000);\n        }\n        if (self & 0xffffffffffffffff == 0) {\n            ret += 8;\n            self = bytes32(uint(self) / 0x10000000000000000);\n        }\n        if (self & 0xffffffff == 0) {\n            ret += 4;\n            self = bytes32(uint(self) / 0x100000000);\n        }\n        if (self & 0xffff == 0) {\n            ret += 2;\n            self = bytes32(uint(self) / 0x10000);\n        }\n        if (self & 0xff == 0) {\n            ret += 1;\n        }\n        return 32 - ret;\n    }\n\n    /*\n     * @dev Returns a slice containing the entire bytes32, interpreted as a\n     *      null-terminated utf-8 string.\n     * @param self The bytes32 value to convert to a slice.\n     * @return A new slice containing the value of the input argument up to the\n     *         first null.\n     */\n    function toSliceB32(bytes32 self) internal pure returns (slice ret) {\n        // Allocate space for `self` in memory, copy it there, and point ret at it\n        assembly {\n            let ptr := mload(0x40)\n            mstore(0x40, add(ptr, 0x20))\n            mstore(ptr, self)\n            mstore(add(ret, 0x20), ptr)\n        }\n        ret._len = len(self);\n    }\n\n    /*\n     * @dev Returns a new slice containing the same data as the current slice.\n     * @param self The slice to copy.\n     * @return A new slice containing the same data as `self`.\n     */\n    function copy(slice self) internal pure returns (slice) {\n        return slice(self._len, self._ptr);\n    }\n\n    /*\n     * @dev Copies a slice to a new string.\n     * @param self The slice to copy.\n     * @return A newly allocated string containing the slice's text.\n     */\n    function toString(slice self) internal pure returns (string) {\n        string memory ret = new string(self._len);\n        uint retptr;\n        assembly { retptr := add(ret, 32) }\n\n        memcpy(retptr, self._ptr, self._len);\n        return ret;\n    }\n\n    /*\n     * @dev Returns the length in runes of the slice. Note that this operation\n     *      takes time proportional to the length of the slice; avoid using it\n     *      in loops, and call `slice.empty()` if you only need to know whether\n     *      the slice is empty or not.\n     * @param self The slice to operate on.\n     * @return The length of the slice in runes.\n     */\n    function len(slice self) internal pure returns (uint l) {\n        // Starting at ptr-31 means the LSB will be the byte we care about\n        uint ptr = self._ptr - 31;\n        uint end = ptr + self._len;\n        for (l = 0; ptr < end; l++) {\n            uint8 b;\n            assembly { b := and(mload(ptr), 0xFF) }\n            if (b < 0x80) {\n                ptr += 1;\n            } else if(b < 0xE0) {\n                ptr += 2;\n            } else if(b < 0xF0) {\n                ptr += 3;\n            } else if(b < 0xF8) {\n                ptr += 4;\n            } else if(b < 0xFC) {\n                ptr += 5;\n            } else {\n                ptr += 6;\n            }\n        }\n    }\n\n    /*\n     * @dev Returns true if the slice is empty (has a length of 0).\n     * @param self The slice to operate on.\n     * @return True if the slice is empty, False otherwise.\n     */\n    function empty(slice self) internal pure returns (bool) {\n        return self._len == 0;\n    }\n\n    /*\n     * @dev Returns a positive number if `other` comes lexicographically after\n     *      `self`, a negative number if it comes before, or zero if the\n     *      contents of the two slices are equal. Comparison is done per-rune,\n     *      on unicode codepoints.\n     * @param self The first slice to compare.\n     * @param other The second slice to compare.\n     * @return The result of the comparison.\n     */\n    function compare(slice self, slice other) internal pure returns (int) {\n        uint shortest = self._len;\n        if (other._len < self._len)\n            shortest = other._len;\n\n        uint selfptr = self._ptr;\n        uint otherptr = other._ptr;\n        for (uint idx = 0; idx < shortest; idx += 32) {\n            uint a;\n            uint b;\n            assembly {\n                a := mload(selfptr)\n                b := mload(otherptr)\n            }\n            if (a != b) {\n                // Mask out irrelevant bytes and check again\n                uint256 mask = uint256(-1); // 0xffff...\n                if(shortest < 32) {\n                  mask = ~(2 ** (8 * (32 - shortest + idx)) - 1);\n                }\n                uint256 diff = (a & mask) - (b & mask);\n                if (diff != 0)\n                    return int(diff);\n            }\n            selfptr += 32;\n            otherptr += 32;\n        }\n        return int(self._len) - int(other._len);\n    }\n\n    /*\n     * @dev Returns true if the two slices contain the same text.\n     * @param self The first slice to compare.\n     * @param self The second slice to compare.\n     * @return True if the slices are equal, false otherwise.\n     */\n    function equals(slice self, slice other) internal pure returns (bool) {\n        return compare(self, other) == 0;\n    }\n\n    /*\n     * @dev Extracts the first rune in the slice into `rune`, advancing the\n     *      slice to point to the next rune and returning `self`.\n     * @param self The slice to operate on.\n     * @param rune The slice that will contain the first rune.\n     * @return `rune`.\n     */\n    function nextRune(slice self, slice rune) internal pure returns (slice) {\n        rune._ptr = self._ptr;\n\n        if (self._len == 0) {\n            rune._len = 0;\n            return rune;\n        }\n\n        uint l;\n        uint b;\n        // Load the first byte of the rune into the LSBs of b\n        assembly { b := and(mload(sub(mload(add(self, 32)), 31)), 0xFF) }\n        if (b < 0x80) {\n            l = 1;\n        } else if(b < 0xE0) {\n            l = 2;\n        } else if(b < 0xF0) {\n            l = 3;\n        } else {\n            l = 4;\n        }\n\n        // Check for truncated codepoints\n        if (l > self._len) {\n            rune._len = self._len;\n            self._ptr += self._len;\n            self._len = 0;\n            return rune;\n        }\n\n        self._ptr += l;\n        self._len -= l;\n        rune._len = l;\n        return rune;\n    }\n\n    /*\n     * @dev Returns the first rune in the slice, advancing the slice to point\n     *      to the next rune.\n     * @param self The slice to operate on.\n     * @return A slice containing only the first rune from `self`.\n     */\n    function nextRune(slice self) internal pure returns (slice ret) {\n        nextRune(self, ret);\n    }\n\n    /*\n     * @dev Returns the number of the first codepoint in the slice.\n     * @param self The slice to operate on.\n     * @return The number of the first codepoint in the slice.\n     */\n    function ord(slice self) internal pure returns (uint ret) {\n        if (self._len == 0) {\n            return 0;\n        }\n\n        uint word;\n        uint length;\n        uint divisor = 2 ** 248;\n\n        // Load the rune into the MSBs of b\n        assembly { word:= mload(mload(add(self, 32))) }\n        uint b = word / divisor;\n        if (b < 0x80) {\n            ret = b;\n            length = 1;\n        } else if(b < 0xE0) {\n            ret = b & 0x1F;\n            length = 2;\n        } else if(b < 0xF0) {\n            ret = b & 0x0F;\n            length = 3;\n        } else {\n            ret = b & 0x07;\n            length = 4;\n        }\n\n        // Check for truncated codepoints\n        if (length > self._len) {\n            return 0;\n        }\n\n        for (uint i = 1; i < length; i++) {\n            divisor = divisor / 256;\n            b = (word / divisor) & 0xFF;\n            if (b & 0xC0 != 0x80) {\n                // Invalid UTF-8 sequence\n                return 0;\n            }\n            ret = (ret * 64) | (b & 0x3F);\n        }\n\n        return ret;\n    }\n\n    /*\n     * @dev Returns the keccak-256 hash of the slice.\n     * @param self The slice to hash.\n     * @return The hash of the slice.\n     */\n    function keccak(slice self) internal pure returns (bytes32 ret) {\n        assembly {\n            ret := keccak256(mload(add(self, 32)), mload(self))\n        }\n    }\n\n    /*\n     * @dev Returns true if `self` starts with `needle`.\n     * @param self The slice to operate on.\n     * @param needle The slice to search for.\n     * @return True if the slice starts with the provided text, false otherwise.\n     */\n    function startsWith(slice self, slice needle) internal pure returns (bool) {\n        if (self._len < needle._len) {\n            return false;\n        }\n\n        if (self._ptr == needle._ptr) {\n            return true;\n        }\n\n        bool equal;\n        assembly {\n            let length := mload(needle)\n            let selfptr := mload(add(self, 0x20))\n            let needleptr := mload(add(needle, 0x20))\n            equal := eq(keccak256(selfptr, length), keccak256(needleptr, length))\n        }\n        return equal;\n    }\n\n    /*\n     * @dev If `self` starts with `needle`, `needle` is removed from the\n     *      beginning of `self`. Otherwise, `self` is unmodified.\n     * @param self The slice to operate on.\n     * @param needle The slice to search for.\n     * @return `self`\n     */\n    function beyond(slice self, slice needle) internal pure returns (slice) {\n        if (self._len < needle._len) {\n            return self;\n        }\n\n        bool equal = true;\n        if (self._ptr != needle._ptr) {\n            assembly {\n                let length := mload(needle)\n                let selfptr := mload(add(self, 0x20))\n                let needleptr := mload(add(needle, 0x20))\n                equal := eq(sha3(selfptr, length), sha3(needleptr, length))\n            }\n        }\n\n        if (equal) {\n            self._len -= needle._len;\n            self._ptr += needle._len;\n        }\n\n        return self;\n    }\n\n    /*\n     * @dev Returns true if the slice ends with `needle`.\n     * @param self The slice to operate on.\n     * @param needle The slice to search for.\n     * @return True if the slice starts with the provided text, false otherwise.\n     */\n    function endsWith(slice self, slice needle) internal pure returns (bool) {\n        if (self._len < needle._len) {\n            return false;\n        }\n\n        uint selfptr = self._ptr + self._len - needle._len;\n\n        if (selfptr == needle._ptr) {\n            return true;\n        }\n\n        bool equal;\n        assembly {\n            let length := mload(needle)\n            let needleptr := mload(add(needle, 0x20))\n            equal := eq(keccak256(selfptr, length), keccak256(needleptr, length))\n        }\n\n        return equal;\n    }\n\n    /*\n     * @dev If `self` ends with `needle`, `needle` is removed from the\n     *      end of `self`. Otherwise, `self` is unmodified.\n     * @param self The slice to operate on.\n     * @param needle The slice to search for.\n     * @return `self`\n     */\n    function until(slice self, slice needle) internal pure returns (slice) {\n        if (self._len < needle._len) {\n            return self;\n        }\n\n        uint selfptr = self._ptr + self._len - needle._len;\n        bool equal = true;\n        if (selfptr != needle._ptr) {\n            assembly {\n                let length := mload(needle)\n                let needleptr := mload(add(needle, 0x20))\n                equal := eq(keccak256(selfptr, length), keccak256(needleptr, length))\n            }\n        }\n\n        if (equal) {\n            self._len -= needle._len;\n        }\n\n        return self;\n    }\n\n    event log_bytemask(bytes32 mask);\n\n    // Returns the memory address of the first byte of the first occurrence of\n    // `needle` in `self`, or the first byte after `self` if not found.\n    function findPtr(uint selflen, uint selfptr, uint needlelen, uint needleptr) private pure returns (uint) {\n        uint ptr = selfptr;\n        uint idx;\n\n        if (needlelen <= selflen) {\n            if (needlelen <= 32) {\n                bytes32 mask = bytes32(~(2 ** (8 * (32 - needlelen)) - 1));\n\n                bytes32 needledata;\n                assembly { needledata := and(mload(needleptr), mask) }\n\n                uint end = selfptr + selflen - needlelen;\n                bytes32 ptrdata;\n                assembly { ptrdata := and(mload(ptr), mask) }\n\n                while (ptrdata != needledata) {\n                    if (ptr >= end)\n                        return selfptr + selflen;\n                    ptr++;\n                    assembly { ptrdata := and(mload(ptr), mask) }\n                }\n                return ptr;\n            } else {\n                // For long needles, use hashing\n                bytes32 hash;\n                assembly { hash := sha3(needleptr, needlelen) }\n\n                for (idx = 0; idx <= selflen - needlelen; idx++) {\n                    bytes32 testHash;\n                    assembly { testHash := sha3(ptr, needlelen) }\n                    if (hash == testHash)\n                        return ptr;\n                    ptr += 1;\n                }\n            }\n        }\n        return selfptr + selflen;\n    }\n\n    // Returns the memory address of the first byte after the last occurrence of\n    // `needle` in `self`, or the address of `self` if not found.\n    function rfindPtr(uint selflen, uint selfptr, uint needlelen, uint needleptr) private pure returns (uint) {\n        uint ptr;\n\n        if (needlelen <= selflen) {\n            if (needlelen <= 32) {\n                bytes32 mask = bytes32(~(2 ** (8 * (32 - needlelen)) - 1));\n\n                bytes32 needledata;\n                assembly { needledata := and(mload(needleptr), mask) }\n\n                ptr = selfptr + selflen - needlelen;\n                bytes32 ptrdata;\n                assembly { ptrdata := and(mload(ptr), mask) }\n\n                while (ptrdata != needledata) {\n                    if (ptr <= selfptr)\n                        return selfptr;\n                    ptr--;\n                    assembly { ptrdata := and(mload(ptr), mask) }\n                }\n                return ptr + needlelen;\n            } else {\n                // For long needles, use hashing\n                bytes32 hash;\n                assembly { hash := sha3(needleptr, needlelen) }\n                ptr = selfptr + (selflen - needlelen);\n                while (ptr >= selfptr) {\n                    bytes32 testHash;\n                    assembly { testHash := sha3(ptr, needlelen) }\n                    if (hash == testHash)\n                        return ptr + needlelen;\n                    ptr -= 1;\n                }\n            }\n        }\n        return selfptr;\n    }\n\n    /*\n     * @dev Modifies `self` to contain everything from the first occurrence of\n     *      `needle` to the end of the slice. `self` is set to the empty slice\n     *      if `needle` is not found.\n     * @param self The slice to search and modify.\n     * @param needle The text to search for.\n     * @return `self`.\n     */\n    function find(slice self, slice needle) internal pure returns (slice) {\n        uint ptr = findPtr(self._len, self._ptr, needle._len, needle._ptr);\n        self._len -= ptr - self._ptr;\n        self._ptr = ptr;\n        return self;\n    }\n\n    /*\n     * @dev Modifies `self` to contain the part of the string from the start of\n     *      `self` to the end of the first occurrence of `needle`. If `needle`\n     *      is not found, `self` is set to the empty slice.\n     * @param self The slice to search and modify.\n     * @param needle The text to search for.\n     * @return `self`.\n     */\n    function rfind(slice self, slice needle) internal pure returns (slice) {\n        uint ptr = rfindPtr(self._len, self._ptr, needle._len, needle._ptr);\n        self._len = ptr - self._ptr;\n        return self;\n    }\n\n    /*\n     * @dev Splits the slice, setting `self` to everything after the first\n     *      occurrence of `needle`, and `token` to everything before it. If\n     *      `needle` does not occur in `self`, `self` is set to the empty slice,\n     *      and `token` is set to the entirety of `self`.\n     * @param self The slice to split.\n     * @param needle The text to search for in `self`.\n     * @param token An output parameter to which the first token is written.\n     * @return `token`.\n     */\n    function split(slice self, slice needle, slice token) internal pure returns (slice) {\n        uint ptr = findPtr(self._len, self._ptr, needle._len, needle._ptr);\n        token._ptr = self._ptr;\n        token._len = ptr - self._ptr;\n        if (ptr == self._ptr + self._len) {\n            // Not found\n            self._len = 0;\n        } else {\n            self._len -= token._len + needle._len;\n            self._ptr = ptr + needle._len;\n        }\n        return token;\n    }\n\n    /*\n     * @dev Splits the slice, setting `self` to everything after the first\n     *      occurrence of `needle`, and returning everything before it. If\n     *      `needle` does not occur in `self`, `self` is set to the empty slice,\n     *      and the entirety of `self` is returned.\n     * @param self The slice to split.\n     * @param needle The text to search for in `self`.\n     * @return The part of `self` up to the first occurrence of `delim`.\n     */\n    function split(slice self, slice needle) internal pure returns (slice token) {\n        split(self, needle, token);\n    }\n\n    /*\n     * @dev Splits the slice, setting `self` to everything before the last\n     *      occurrence of `needle`, and `token` to everything after it. If\n     *      `needle` does not occur in `self`, `self` is set to the empty slice,\n     *      and `token` is set to the entirety of `self`.\n     * @param self The slice to split.\n     * @param needle The text to search for in `self`.\n     * @param token An output parameter to which the first token is written.\n     * @return `token`.\n     */\n    function rsplit(slice self, slice needle, slice token) internal pure returns (slice) {\n        uint ptr = rfindPtr(self._len, self._ptr, needle._len, needle._ptr);\n        token._ptr = ptr;\n        token._len = self._len - (ptr - self._ptr);\n        if (ptr == self._ptr) {\n            // Not found\n            self._len = 0;\n        } else {\n            self._len -= token._len + needle._len;\n        }\n        return token;\n    }\n\n    /*\n     * @dev Splits the slice, setting `self` to everything before the last\n     *      occurrence of `needle`, and returning everything after it. If\n     *      `needle` does not occur in `self`, `self` is set to the empty slice,\n     *      and the entirety of `self` is returned.\n     * @param self The slice to split.\n     * @param needle The text to search for in `self`.\n     * @return The part of `self` after the last occurrence of `delim`.\n     */\n    function rsplit(slice self, slice needle) internal pure returns (slice token) {\n        rsplit(self, needle, token);\n    }\n\n    /*\n     * @dev Counts the number of nonoverlapping occurrences of `needle` in `self`.\n     * @param self The slice to search.\n     * @param needle The text to search for in `self`.\n     * @return The number of occurrences of `needle` found in `self`.\n     */\n    function count(slice self, slice needle) internal pure returns (uint cnt) {\n        uint ptr = findPtr(self._len, self._ptr, needle._len, needle._ptr) + needle._len;\n        while (ptr <= self._ptr + self._len) {\n            cnt++;\n            ptr = findPtr(self._len - (ptr - self._ptr), ptr, needle._len, needle._ptr) + needle._len;\n        }\n    }\n\n    /*\n     * @dev Returns True if `self` contains `needle`.\n     * @param self The slice to search.\n     * @param needle The text to search for in `self`.\n     * @return True if `needle` is found in `self`, false otherwise.\n     */\n    function contains(slice self, slice needle) internal pure returns (bool) {\n        return rfindPtr(self._len, self._ptr, needle._len, needle._ptr) != self._ptr;\n    }\n\n    /*\n     * @dev Returns a newly allocated string containing the concatenation of\n     *      `self` and `other`.\n     * @param self The first slice to concatenate.\n     * @param other The second slice to concatenate.\n     * @return The concatenation of the two strings.\n     */\n    function concat(slice self, slice other) internal pure returns (string) {\n        string memory ret = new string(self._len + other._len);\n        uint retptr;\n        assembly { retptr := add(ret, 32) }\n        memcpy(retptr, self._ptr, self._len);\n        memcpy(retptr + self._len, other._ptr, other._len);\n        return ret;\n    }\n\n    /*\n     * @dev Joins an array of slices, using `self` as a delimiter, returning a\n     *      newly allocated string.\n     * @param self The delimiter to use.\n     * @param parts A list of slices to join.\n     * @return A newly allocated string containing all the slices in `parts`,\n     *         joined with `self`.\n     */\n    function join(slice self, slice[] parts) internal pure returns (string) {\n        if (parts.length == 0)\n            return \"\";\n\n        uint length = self._len * (parts.length - 1);\n        for(uint i = 0; i < parts.length; i++)\n            length += parts[i]._len;\n\n        string memory ret = new string(length);\n        uint retptr;\n        assembly { retptr := add(ret, 32) }\n\n        for(i = 0; i < parts.length; i++) {\n            memcpy(retptr, parts[i]._ptr, parts[i]._len);\n            retptr += parts[i]._len;\n            if (i < parts.length - 1) {\n                memcpy(retptr, self._ptr, self._len);\n                retptr += self._len;\n            }\n        }\n\n        return ret;\n    }\n}\n\n/**\n * @title SafeMath\n * @dev Math operations with safety checks that throw on error\n */\nlibrary SafeMath {\n\n  /**\n  * @dev Multiplies two numbers, throws on overflow.\n  */\n    function mul(uint256 a, uint256 b) internal pure returns (uint256 c) {\n        if (a == 0) {\n            return 0;\n        }\n        c = a * b;\n        assert(c / a == b);\n        return c;\n    }\n\n    /**\n    * @dev Integer division of two numbers, truncating the quotient.\n    */\n    function div(uint256 a, uint256 b) internal pure returns (uint256) {\n        // assert(b > 0); // Solidity automatically throws when dividing by 0\n        // uint256 c = a / b;\n        // assert(a == b * c + a % b); // There is no case in which this doesn't hold\n        return a / b;\n    }\n\n    /**\n    * @dev Subtracts two numbers, throws on overflow (i.e. if subtrahend is greater than minuend).\n    */\n    function sub(uint256 a, uint256 b) internal pure returns (uint256) {\n        assert(b <= a);\n        return a - b;\n    }\n\n    /**\n    * @dev Adds two numbers, throws on overflow.\n    */\n    function add(uint256 a, uint256 b) internal pure returns (uint256 c) {\n        c = a + b;\n        assert(c >= a);\n        return c;\n    }\n}\n\n/**\n * @title Ownable\n * @dev The Ownable contract has an owner address, and provides basic authorization control\n * functions, this simplifies the implementation of \"user permissions\".\n */\ncontract Ownable {\n    address public owner;\n\n    event OwnershipRenounced(\n        address indexed previousOwner\n    );\n    event OwnershipTransferred(\n        address indexed previousOwner,\n        address indexed newOwner\n    );\n\n    /**\n     * @dev The Ownable constructor sets the original `owner` of the contract to the sender\n     * account.\n     */\n    constructor() public {\n        owner = msg.sender;\n    }\n\n    /**\n     * @dev Throws if called by any account other than the owner.\n     */\n    modifier onlyOwner() {\n        require(msg.sender == owner);\n        _;\n    }\n\n    /**\n     * @dev Allows the current owner to transfer control of the contract to a newOwner.\n     * @param newOwner The address to transfer ownership to.\n     */\n    function transferOwnership(address newOwner) public onlyOwner {\n        require(newOwner != address(0));\n        emit OwnershipTransferred(owner, newOwner);\n        owner = newOwner;\n    }\n}\n\n/**\n * @title Pausable\n * @dev Base contract which allows children to implement an emergency stop mechanism.\n */\ncontract Pausable is Ownable {\n    event Pause();\n    event Unpause();\n\n    bool public paused = false;\n\n    /**\n     * @dev Modifier to make a function callable only when the contract is not paused.\n     */\n    modifier whenNotPaused() {\n        require(!paused);\n        _;\n    }\n\n    /**\n     * @dev Modifier to make a function callable only when the contract is paused.\n     */\n    modifier whenPaused() {\n        require(paused);\n        _;\n    }\n\n    /**\n     * @dev called by the owner to pause, triggers stopped state\n     */\n    function pause() onlyOwner whenNotPaused public {\n        paused = true;\n        emit Pause();\n    }\n\n    /**\n     * @dev called by the owner to unpause, returns to normal state\n     */\n    function unpause() onlyOwner whenPaused public {\n        paused = false;\n        emit Unpause();\n    }\n}\n\n/**\n * @title Destructible\n * @dev Base contract that can be destroyed by owner. All funds in contract will be sent to the owner.\n */\ncontract Destructible is Ownable {\n\n    constructor() public payable { }\n\n    /**\n     * @dev Transfers the current balance to the owner and terminates the contract.\n     */\n    function destroy() onlyOwner public {\n        selfdestruct(owner);\n    }\n\n    function destroyAndSend(address _recipient) onlyOwner public {\n        selfdestruct(_recipient);\n    }\n\n    /**\n     * @notice Terminate contract and refund to _recipient\n     * @param tokens List of addresses of ERC20 or ERC20Basic token contracts to refund.\n     * @notice The called token contracts could try to re-enter this contract. Only supply token contracts you trust.\n     */\n    function destroy(address[] tokens) onlyOwner public {\n        destroyAndSend(tokens, owner);\n    }\n\n    /**\n     * @notice Terminate contract and refund to _recipient\n     * @param tokens List of addresses of ERC20 or ERC20Basic token contracts to refund.\n     * @notice The called token contracts could try to re-enter this contract. Only supply token contracts you trust.\n     */\n    function destroyAndSend(address[] tokens, address _recipient) onlyOwner public {\n        // Transfer tokens to _recipient\n        for (uint256 i = 0; i < tokens.length; i++) {\n            ERC20Basic token = ERC20Basic(tokens[i]);\n            uint256 balance = token.balanceOf(this);\n            token.transfer(_recipient, balance);\n        }\n\n        // Transfer Eth to _recipient and terminate contract\n        selfdestruct(_recipient);\n    }\n}\n\n/**\n * @title ERC20Basic\n * @dev Simpler version of ERC20 interface\n * @dev see https://github.com/ethereum/EIPs/issues/179\n */\ncontract ERC20Basic {\n    function totalSupply() public view returns (uint256);\n    function balanceOf(address who) public view returns (uint256);\n    function transfer(address to, uint256 value) public returns (bool);\n    event Transfer(\n        address indexed from,\n        address indexed to,\n        uint256 value\n    );\n}\n\ncontract TrueDeckBlackJack is Ownable {\n    using strings for *;\n    using SafeMath for uint256;\n\n    event StageChanged(bytes32 gameId, uint64 round, Stage newStage);\n    event NewRound(bytes32 gameId, uint64 round, address player, uint256 bet);\n    event CardDrawn(bytes32 gameId, uint64 round, uint8 card, uint8 score, bool isDealer);\n    event Result(bytes32 gameId, uint64 round, uint256 payout, uint8 playerScore, uint8 dealerScore);\n    event ProcessEvents(bytes32 gameId, uint64 round);\n\n    enum Stage {\n        SitDown,\n    \tBet,\n    \tPlay\n    }\n\n    struct Game {\n        bytes32 id;\n        uint256 blockNumber;\n        uint64 round;\n        Stage stage;\n    }\n\n    struct Player {\n        uint256 bet;\n        uint256 seed;\n        uint256[] hand;\n        uint8 score;\n    }\n\n    uint256 constant NUMBER_OF_DECKS = 8;\n\n    uint8[13] cardPoints = [11, 2, 3, 4, 5, 6, 7, 8, 9, 10, 10, 10, 10];\n\n    string[13] cardRanks = [\"A\", \"2\", \"3\", \"4\", \"5\", \"6\", \"7\", \"8\", \"9\", \"10\", \"J\", \"Q\", \"K\"];\n\n    mapping(address => Game) public games;\n\n    mapping(bytes32 => Player) public dealers;\n\n    mapping(bytes32 => Player) public players;\n\n    uint256 seed;\n\n    constructor() public {\n        seed += now;\n    }\n\n    function getRoundBlockNumber() public view returns (uint256 blockNumber) {\n        return games[msg.sender].blockNumber;\n    }\n\n    function getHandState(Player player) private view returns (string handState) {\n        string memory temp = \"\";\n        for (uint8 i = 0; i < player.hand.length; i++) {\n            uint256 card = player.hand[i] % 52 % 13;\n\t\t\ttemp = temp.toSlice().concat(cardRanks[card].toSlice());\n\t\t\ttemp = temp.toSlice().concat(\",\".toSlice());\n        }\n        handState = temp;\n    }\n\n    function getGameState() public view returns (bytes32 gameId, uint256 blockNumber, uint64 round, Stage stage, uint8 dealerScore, string dealerHand, uint8 playerScore, string playerHand) {\n        Game storage game = games[msg.sender];\n        gameId = game.id;\n        blockNumber = game.blockNumber;\n        round = game.round;\n        stage = game.stage;\n\n        dealerScore = dealers[gameId].score;\n        playerScore = players[gameId].score;\n\n        dealerHand = getHandState(dealers[gameId]);\n        playerHand = getHandState(players[gameId]);\n    }\n\n    modifier atStage(Stage _stage) {\n        require(\n            games[msg.sender].stage == _stage,\n            \"Function cannot be called at this time.\"\n        );\n        _;\n    }\n\n    function nextStage(Game storage game) internal {\n        game.stage = Stage(uint256(game.stage) + 1);\n        emit StageChanged(game.id, game.round, game.stage);\n    }\n\n    function reset(Game storage game) internal {\n        game.stage = Stage.Bet;\n        emit StageChanged(game.id, game.round, game.stage);\n        players[game.id].bet = 0;\n        players[game.id].score = 0;\n        dealers[game.id].score = 0;\n        delete players[game.id].hand;\n        delete dealers[game.id].hand;\n    }\n\n    function initGame(uint256 _seed) public atStage(Stage.SitDown) {\n        bytes32 id = keccak256(block.timestamp, msg.sender, msg.data);                                                    // solium-disable-line\n\n        seed += _seed;\n\n        games[msg.sender] = Game(id, block.number, 0, Stage.SitDown);\n        dealers[id] = Player(0, 0, new uint256[](0), 0);\n        players[id] = Player(0, 0, new uint256[](0), 0);\n\n        nextStage(games[msg.sender]);\n        emit ProcessEvents(games[msg.sender].id, games[msg.sender].round);\n    }\n\n    function newRound(uint256 _seed) public payable atStage(Stage.Bet) {\n        Game storage game = games[msg.sender];\n\n        seed += _seed;\n        dealers[game.id].seed = _seed;\n        players[game.id].seed = _seed;\n        players[game.id].bet = msg.value;\n        game.round++;\n        game.blockNumber = block.number;\n\n        emit NewRound(game.id, game.round, msg.sender, msg.value);\n\n        nextStage(game);\n        dealCards(game);\n        emit ProcessEvents(game.id, game.round);\n    }\n\n    function addBet() payable public {\n        Game storage game = games[msg.sender];\n        Player storage player = players[game.id];\n        player.bet = player.bet.add(msg.value);\n    }\n\n    function() public payable onlyOwner {\n\n    }\n\n    function hit(uint256 _seed) public atStage(Stage.Play) {\n        Game storage game = games[msg.sender];\n        Player storage player = players[game.id];\n        if (player.score > 21) {\n            revert();\n        }\n\n        seed += _seed;\n\n        drawCard(game, player);\n        player.score = recalculate(player);\n\n        if (player.score >= 21) {\n            concludeGame(game);\n        }\n        emit ProcessEvents(game.id, game.round);\n    }\n\n    function stand(uint256 _seed) public atStage(Stage.Play) {\n        Game storage game = games[msg.sender];\n        seed += _seed;\n        concludeGame(game);\n        emit ProcessEvents(game.id, game.round);\n    }\n\n    function dealCards(Game storage game) private atStage(Stage.Play) {\n        drawCard(game, players[game.id]);\n        drawCard(game, dealers[game.id]);\n        drawCard(game, players[game.id]);\n    }\n\n    /* TODO: Check for card repeatation */\n    function drawCard(Game game, Player storage player) private returns (uint256) {\n        uint64 _now = uint64(now);\n\n        // Drawing card by generating a random index in a set of 8 deck\n        uint256 card = ((player.seed * seed).add(_now)) % (NUMBER_OF_DECKS*52);\n\n        // Modify seeds\n        player.seed = uint256(keccak256(player.seed, card, _now));\n        seed = uint256(keccak256(seed, card, _now));\n\n        // Push the card index to player hand\n        player.hand.push(card);\n\n        // Recalculate player score\n        card = card % 52 % 13;\n        if (card == 0) {\n            player.score = recalculate(player);\n        } else {\n            player.score += cardPoints[card];\n        }\n\n        emit CardDrawn(game.id, game.round, uint8(card % 52), player.score, player.bet == 0);\n\n        return card;\n    }\n\n    function recalculate(Player player) private view returns (uint8 score) {\n\t\tuint8 numberOfAces = 0;\n        for (uint8 i = 0; i < player.hand.length; i++) {\n            uint8 card = (uint8) (player.hand[i] % 52 % 13);\n\t\t\tscore += cardPoints[card];\n            if (card == 0) numberOfAces++;\n        }\n        while (numberOfAces > 0 && score > 21) {\n            score -= 10;\n            numberOfAces--;\n        }\n    }\n\n    function concludeGame(Game storage game) private {\n        uint256 payout = calculatePayout(game);\n        if (payout != 0) {\n            msg.sender.transfer(payout);\n        }\n        emit Result(game.id, game.round, payout, players[game.id].score, dealers[game.id].score);\n\n        reset(game);\n    }\n\n    function calculatePayout(Game storage game) private returns (uint256 payout) {\n        Player storage player = players[game.id];\n        Player storage dealer = dealers[game.id];\n        // Player busted\n        if (player.score > 21) {\n            payout = 0;\n        } else {\n            bool dealerHasBJ = drawDealerCards(game);\n\n            // Player has BlackJack but dealer does not.\n            if (player.score == 21 && player.hand.length == 2 && !dealerHasBJ) {\n                // Pays 2 to 1\n                payout = player.bet * 3;\n            } else if (player.score > dealer.score || dealer.score > 21) {\n                payout = player.bet * 2;\n            } else if (player.score == dealer.score) {\n                payout = player.bet;\n            } else {\n                payout = 0;\n            }\n        }\n    }\n\n    function drawDealerCards(Game storage game) private returns (bool) {\n        Player storage dealer = dealers[game.id];\n        // Draw dealer's next card to check for BlackJack\n        drawCard(game, dealer);\n        if (dealer.score == 21) {\n            return true;\n        }\n\n        // Dealer must draw to 16 and stand on all 17's\n        while (dealer.score < 17) {\n            drawCard(game, dealer);\n        }\n\n        return false;\n    }\n\n    function uint2str(uint i) internal pure returns (string) {\n        if (i == 0) return \"0\";\n        uint j = i;\n        uint len;\n        while (j != 0){\n            len++;\n            j /= 10;\n        }\n        bytes memory bstr = new bytes(len);\n        uint k = len - 1;\n        while (i != 0){\n            bstr[k--] = byte(48 + i % 10);\n            i /= 10;\n        }\n        return string(bstr);\n    }\n}\n",
  "sourcePath": "/home/kayeth/aksh/TrueDeck/Games/BlackJack/SmartContract/BlackJack_Final/contracts/TrueDeckBlackJack.sol",
  "compiler": {
    "name": "solc",
    "version": "0.4.23+commit.124ca40d.Emscripten.clang"
  },
  "schemaVersion": "2.0.0",
  "updatedAt": "2018-06-22T12:11:09.017Z"
}